{
  "contractName": "Dir",
  "abi": [
    {
      "inputs": [
        {
          "name": "_name",
          "type": "string"
        },
        {
          "name": "_report_type",
          "type": "string"
        },
        {
          "name": "_desc",
          "type": "string"
        }
      ],
      "payable": false,
      "stateMutability": "nonpayable",
      "type": "constructor"
    },
    {
      "anonymous": false,
      "inputs": [
        {
          "indexed": true,
          "name": "_reporter",
          "type": "address"
        },
        {
          "indexed": false,
          "name": "_name",
          "type": "string"
        },
        {
          "indexed": false,
          "name": "_report_type",
          "type": "string"
        },
        {
          "indexed": false,
          "name": "_desc",
          "type": "string"
        }
      ],
      "name": "createReportEvent",
      "type": "event"
    },
    {
      "constant": true,
      "inputs": [],
      "name": "getReport",
      "outputs": [
        {
          "name": "_reporter",
          "type": "address"
        },
        {
          "name": "_name",
          "type": "string"
        },
        {
          "name": "_report_type",
          "type": "string"
        },
        {
          "name": "_desc",
          "type": "string"
        }
      ],
      "payable": false,
      "stateMutability": "view",
      "type": "function"
    },
    {
      "constant": false,
      "inputs": [
        {
          "name": "_report_status",
          "type": "uint256"
        }
      ],
      "name": "setStatus",
      "outputs": [],
      "payable": false,
      "stateMutability": "nonpayable",
      "type": "function"
    }
  ],
  "bytecode": "0x608060405234801561001057600080fd5b506040516107f83803806107f8833981018060405281019080805182019291906020018051820192919060200180518201929190505050336000806101000a81548173ffffffffffffffffffffffffffffffffffffffff021916908373ffffffffffffffffffffffffffffffffffffffff160217905550826001908051906020019061009d9291906102e4565b5081600290805190602001906100b49291906102e4565b5080600390805190602001906100cb9291906102e4565b5060016004819055506000809054906101000a900473ffffffffffffffffffffffffffffffffffffffff1673ffffffffffffffffffffffffffffffffffffffff167f36e8452b5b1e677577e49e4d6864494d0bed23f134aab184e1e035a16f2db5d3600160026003604051808060200180602001806020018481038452878181546001816001161561010002031660029004815260200191508054600181600116156101000203166002900480156101c45780601f10610199576101008083540402835291602001916101c4565b820191906000526020600020905b8154815290600101906020018083116101a757829003601f168201915b50508481038352868181546001816001161561010002031660029004815260200191508054600181600116156101000203166002900480156102475780601f1061021c57610100808354040283529160200191610247565b820191906000526020600020905b81548152906001019060200180831161022a57829003601f168201915b50508481038252858181546001816001161561010002031660029004815260200191508054600181600116156101000203166002900480156102ca5780601f1061029f576101008083540402835291602001916102ca565b820191906000526020600020905b8154815290600101906020018083116102ad57829003601f168201915b5050965050505050505060405180910390a2505050610389565b828054600181600116156101000203166002900490600052602060002090601f016020900481019282601f1061032557805160ff1916838001178555610353565b82800160010185558215610353579182015b82811115610352578251825591602001919060010190610337565b5b5090506103609190610364565b5090565b61038691905b8082111561038257600081600090555060010161036a565b5090565b90565b610460806103986000396000f30060806040526004361061004c576000357c0100000000000000000000000000000000000000000000000000000000900463ffffffff16806369ba1a7514610051578063e4085d671461007e575b600080fd5b34801561005d57600080fd5b5061007c60048036038101908080359060200190929190505050610219565b005b34801561008a57600080fd5b50610093610223565b604051808573ffffffffffffffffffffffffffffffffffffffff1673ffffffffffffffffffffffffffffffffffffffff168152602001806020018060200180602001848103845287818151815260200191508051906020019080838360005b8381101561010d5780820151818401526020810190506100f2565b50505050905090810190601f16801561013a5780820380516001836020036101000a031916815260200191505b50848103835286818151815260200191508051906020019080838360005b83811015610173578082015181840152602081019050610158565b50505050905090810190601f1680156101a05780820380516001836020036101000a031916815260200191505b50848103825285818151815260200191508051906020019080838360005b838110156101d95780820151818401526020810190506101be565b50505050905090810190601f1680156102065780820380516001836020036101000a031916815260200191505b5097505050505050505060405180910390f35b8060048190555050565b600060608060606000809054906101000a900473ffffffffffffffffffffffffffffffffffffffff16600160026003828054600181600116156101000203166002900480601f0160208091040260200160405190810160405280929190818152602001828054600181600116156101000203166002900480156102e75780601f106102bc576101008083540402835291602001916102e7565b820191906000526020600020905b8154815290600101906020018083116102ca57829003601f168201915b50505050509250818054600181600116156101000203166002900480601f0160208091040260200160405190810160405280929190818152602001828054600181600116156101000203166002900480156103835780601f1061035857610100808354040283529160200191610383565b820191906000526020600020905b81548152906001019060200180831161036657829003601f168201915b50505050509150808054600181600116156101000203166002900480601f01602080910402602001604051908101604052809291908181526020018280546001816001161561010002031660029004801561041f5780601f106103f45761010080835404028352916020019161041f565b820191906000526020600020905b81548152906001019060200180831161040257829003601f168201915b505050505090509350935093509350909192935600a165627a7a72305820a0623af7493a3296de2ac30e33f3e836161a1c035e9a9c14b0ec3d72a4e9b2240029",
  "source": "pragma solidity ^0.4.24;\n\ncontract Dir {\n\n  address reporter;\n  string name;\n  string report_type;\n  string desc;\n  uint report_status;\n\n  event createReportEvent(address indexed _reporter, string _name, string _report_type, string _desc);\n\n  constructor(string _name, string _report_type, string _desc) public {\n    reporter = msg.sender;\n    name = _name;\n    report_type = _report_type;\n    desc = _desc;\n    report_status = 1;\n    emit createReportEvent(reporter, name, report_type, desc);\n  }\n\n  function getReport() public view returns(address _reporter, string _name, string _report_type, string _desc){\n    return(reporter, name, report_type, desc);\n  }\n\n  function setStatus(uint _report_status) public {\n    report_status = _report_status;\n  }\n}\n",
  "sourcePath": "/home/lovro/dir-contract/contracts/Dir.sol",
  "compiler": {
    "name": "solc",
    "version": "0.4.24+commit.e67f0147.Emscripten.clang"
  },
  "schemaVersion": "2.0.1",
  "updatedAt": "2018-09-02T07:24:38.586Z"
}